:100000000C948B060C94D2060C94D2060C94D20657
:100010000C94D2060C94D2060C94D2060C94D20600
:100020000C94D2060C94D2060C94C7210C949A22FC
:100030000C94D5180C94D2060C94D2060C94D206CB
:100040000C94D2060C94D2060C94D2060C94D206D0
:100050000C94D2060C9436190C94D2060C94D20649
:100060000C94D2060C94D2060C94D2060C94D206B0
:100070000C94D2060C94D2060C94D2060C94D206A0
:100080000C94D2060C94D2060C94D2060C94D20690
:100090000C94D2060C94D2060C94D2060C94D20680
:1000A0000C94D2060C94D2060C94D20601E00109FD
:1000B00002E002090001E00119021902E002190040
:1000C00001E00106020602E00206000000003029FD
:1000D000001E001F00200021002200230024002514
:1000E00000260027002D002E0031004C00000000EB
:1000F0000001302B0014001A000800150017001C26
:100100000018000C00120013002F0030002A00001D
:10011000000000000002303900040016000700094A
:10012000000A000B000D000E000F00330034002801
:10013000000000000000000000E1001D001B0006A0
:10014000001900050011001000360037003800E1EA
:1001500000015100000000000000000151E000E239
:10016000000000000000002C00000000000000E380
:1001700000E00000000000AE0001003A003B003D3E
:10018000003E003F00400041004200430044004563
:100190000001000100010000000000A800010001B2
:1001A0000001000100010001000100010001000147
:1001B00000010052000100010000000000000046A4
:1001C000000100A90001000100010001000100017F
:1001D000004B004A0050004F0001000000000000EA
:1001E0000000000100AA000100010001000100015F
:1001F0000001004E004D0051000100010000000010
:1002000000000000000100010001000000000000EB
:1002100000010000000000000001000100000000DB
:1002200000010001000100010001000100010001C6
:1002300000010001000100010001000100010001B6
:1002400000000000000100010001000100010001A8
:100250000001000100010001000100010001000196
:100260000001000000000000000100010001000189
:100270000001000100010001000100010001000176
:10028000000100010000000000000000000100016A
:100290000001000100010001000100010001000156
:1002A000000100010001000000000000000000014A
:1002B000000100010000000000000001000000003B
:1002C0000000000100010000000000010001000129
:1002D0000001000100010001000100010001000116
:1002E0000001000100010001000100000000000108
:1002F00000010001000100010001000100010001F6
:1003000000010001000100010001000100000000E7
:1003100000000001000100010001000100010001D6
:1003200000010001000100010001000100010000C6
:1003300000000000000000010001000100010001B8
:1003400000010001000100010001000100010001A5
:10035000000000000000000000010001000100009A
:10036000000000000001000000000000000100018A
:100370000000000000010001000100010001000177
:100380000001000100010001000100010001000165
:100390000001000100000000000100010001000157
:1003A0000001000100010001000100010001000145
:1003B0000001000100010000000000000001000138
:1003C0000001000100010001000100010001000125
:1003D0000001000100010001000000000000000019
:1003E0000001000100010001000100010001000105
:1003F00000010001000100010001000000000000F8
:1004000000000001000100010000000000000001E8
:1004100000000000000000010001000000000001D9
:1004200000010001000100010001000100010001C4
:1004300000010001000100010001000100010000B5
:1004400000000001000100010001000100010001A5
:100450000001000100010001000100010001000194
:100460000000000000000001000100010001000187
:100470000001000100010001000100010001000174
:100480000001000000000000000000010001000168
:100490000001000100010001000100010001000154
:1004A0000001000100000000000000000001000148
:1004B000000100000000000000010000000000003A
:1004C0000001000100000000000100010001000126
:1004D0000001000100010001000100010001000114
:1004E0000001000100010001000000000001000106
:1004F00000010001000100010001000100010001F4
:1005000000010001000100010001000000000000E6
:1005100000010001000100010001000100010001D3
:1005200000010001000100010001000100000000C5
:1005300000000000000100010001000100010001B5
:1005400000010001000100010001000100010000A4
:100550000000000000000001000100010000000098
:100560000000000100000000000000010001000088
:100570000000000100010001000100010001000174
:100580000001000100010001000100010001000163
:100590000001000000000001000100010001000155
:1005A0000001000100010001000100010001000143
:1005B0000001000100000000000000010001000136
:1005C0000001000100010001000100010001000123
:1005D0000001000100010000000000000000000117
:1005E0000001000100010001000100010001000103
:1005F00000010001000100010000000000000000F7
:1006000000010001000100000000000000010000E6
:1006100000000000000100010000000000010001D6
:1006200000010001000100010001000100010001C2
:1006300000010001000100010001000100000000B4
:1006400000010001000100010001000100010001A2
:100650000001000100010001000100010001000093
:100660000000000000010001000100010001000184
:100670000001000100010001000100010001000172
:100680000000000000000000000100010001000166
:100690000001000100010001000100010001000152
:1006A0000001000000000000000000010001000146
:1006B0000000000000000001000000000000000138
:1006C0000001000000000001000100010001000124
:1006D0000001000100010001000100010001000112
:1006E0000001000100010000000000010001000104
:1006F00000010001000100010001000100010001F2
:1007000000010001000100010000000000000001E4
:1007100000010001000100010001000100010001D1
:1007200000010001000100010001000000000000C4
:1007300000000001000100010001000100010001B2
:1007400000010001000100010001000100000000A3
:100750000000000000010001000100000000000096
:100760000001000000000000000100010000000086
:100770000001000100010001000100010001000171
:100780000001000100010001000100010001000161
:100790000000000000010001000100010001000153
:1007A0000001000100010001000100010001000141
:1007B0000001000000000000000100010001000134
:1007C0000001000100010001000100010001000121
:1007D0000001000100000000000000000001000115
:1007E0000001000100010001000100010001000101
:1007F00000010001000100000000000000000001F5
:1008000000010001000000000000000100000000E5
:1008100000000001000100000000000100010001D3
:1008200000010001000100010001000100010001C0
:1008300000010001000100010001000000000001B2
:1008400000010001000100010001000100010001A0
:100850000001000100010001000100010000000092
:100860000000000100010001000100010001000181
:100870000001000100010001000100010001000071
:100880000000000000000001000100010001000163
:100890000001000100010001000100010001000150
:1008A0000000000000000000000100010001000045
:1008B0000000000000010000000000000001000135
:1008C0000000000000010001000100010001000122
:1008D0000001000100010001000100010001000110
:1008E0000001000100000000000100010001000102
:1008F00000010001000100010001000100010001F0
:1009000000010001000100000000000000010001E2
:1009100000010001000100010001000100010001CF
:1009200000010001000100010000000000000000C3
:1009300000010001000100010001000100010001AF
:1009400000010001000100010001000000000000A2
:100950000000000100010001000000000000000193
:100960000000000000000001000100000000000184
:10097000000100010001000100010001000100016F
:100980000001000100010001000100010001000060
:100990000000000100010001000100010001000150
:1009A000000100010001000100010001000100013F
:1009B0000000000000000001000100010001000132
:1009C000000100010001000100010001000100011F
:1009D0000001000000000000000000010001000113
:1009E00000010001000100010001000100010001FF
:1009F00000010001000000000000000000010001F3
:100A000000010000000000000001000000000000E4
:100A100000010001000000000001000100010001D0
:100A200000010001000100010001000100010001BE
:100A300000010001000100010000000000010001B0
:100A4000000100010001000100010001000100019E
:100A50000001000100010001000100000000000091
:100A6000000100010001000100010001000100017E
:100A70000001000100010001000100010000000070
:100A80000000000000010001000100010001000160
:100A9000000100010001000100010001000100004F
:100AA0000000000000000001000100010000000043
:100AB0000000000100000000000000010001000033
:100AC000000000010001000100010001000100011F
:100AD000000100010001000100010001000100010E
:100AE0000001000000000001000100010001000100
:100AF00000010001000100010001000100010001EE
:100B000000010001000000000000000100010001E0
:100B100000010001000100010001000100010001CD
:100B200000010001000100000000000000000001C1
:100B300000010001000100010001000100010001AD
:100B400000010001000100010000000000000000A1
:100B50000001000100010000000000000001000091
:100B6000000000000001000100000012036B00659E
:100B700000790062006F00610072006400000016DE
:100B80000371006D006B006200750069006C006409
:100B9000006500720000000403090409026D0004EE
:100BA0000100A0FA0904000001030101000921115C
:100BB0000100012240000705810308000A09040121
:100BC000000103010200092111010001224D00076B
:100BD00005820308000A090402000103000000095D
:100BE00021110100012236000705830308000A09CC
:100BF0000403000103000000092111010001223952
:100C00000007058403200001120110010000000804
:100C1000EDFE606001000102000105010906A1016D
:100C2000050719E029E715002501950875018102DE
:100C300005081901290595057501910295017503AE
:100C400091010507190029F71500250195F875018F
:100C50008102C005010980A1018502160100260359
:100C6000001A81002A8300751095018100C0050CCF
:100C70000901A1018503160100269C021A01002A20
:100C80009C02751095018100C005010902A10109AE
:100C900001A1000509190129051500250195057512
:100CA00001810295017503810105010930093115A2
:100CB00081257F95027508810609381581257F9564
:100CC0000175088106050C0A38021581257F9501FA
:100CD00075088106C0C005010906A101050719E0D4
:100CE00029E7150025019508750181029501750810
:100CF00081010508190129059505750191029501E4
:100D0000750391010507190029FF150026FF0095BD
:100D10000675088100C011241FBECFEFDAE0DEBFE8
:100D2000CDBF04B603FE27C0809173029091740278
:100D3000A0917502B09176028730904BA740B04BDE
:100D4000D1F41092730210927402109275021092F4
:100D5000760214BE84B7877F84BF0FB6F894A89537
:100D600080916000886180936000109260000FBEE7
:100D7000E0E0F8E3099511E0A0E0B1E0EEE0FCE48A
:100D800002C005900D92AE33B107D9F722E0AEE371
:100D9000B1E001C01D92A337B207E1F70E941D1F09
:100DA0000C94D9250C940000FC01613051F06230A4
:100DB00071F0611112C08281882379F080EC90E09B
:100DC00008958281882349F085EB90E0089582811F
:100DD000882319F08CEA90E0089590E080E008956F
:100DE0000895089581E00895089581E008950C9490
:100DF000F2060E9416112FEF84E39CE02150804000
:100E00009040E1F700C000000C945919EF92FF9256
:100E10000F931F93CF93DF938C01FC01E080F1804F
:100E200080919601811140C082818823C1F1C70160
:100E30000E949B16C82F682FC7010E944416B70155
:100E40008C2F0E943E08EC01B8010E94F70688230F
:100E500009F44BC0B801CE010E94470A882309F467
:100E600044C0C531F0E7DF0720F5C23080E7D8077E
:100E700008F04DC0C115E0E7DE0791F1C130D04761
:100E8000E1F181E08093400180934101C801DF914D
:100E9000CF911F910F91FF90EF900C94F506C70131
:100EA0000E947216C82FCBCFC7010E949B16B701B4
:100EB000C8CFCC3380E7D80709F49BC0CD33D047E7
:100EC00001F7F8018281882309F4BAC01092410128
:100ED0000E94051990933F0180933E0180E296C0E5
:100EE000F801828181110E94F90680E0DF91CF91A3
:100EF0001F910F91FF90EF900895F8018281882350
:100F0000A1F380913302816080933302EECFF80128
:100F10008281882309F4BACF0E945618811102C039
:100F20000E943C180E94731890E090936502809391
:100F30006402FE01E350F047809164028160E23177
:100F4000F10538F4E552FA4D0C948925809164023C
:100F5000826080936402809164020E9477180E94EC
:100F60001611C3CF809164028460F3CF8091640234
:100F70008860EFCF809164028061EBCF8091640242
:100F80008062E7CF809164028064E3CF8091640245
:100F90008068DFCF809164028C60DBCF8091640237
:100FA0008E7FD7CF809164028D7FD3CF80916402F2
:100FB0008B7FCFCF80916402877FCBCF80916402FB
:100FC0008F7EC7CF809164028F7DC3CF80916402F2
:100FD0008F7BBFCF809164028F77BBCF80916402FB
:100FE000837FB7CF90916402892F97FB87F9805850
:100FF000B0CFF8018281882361F0109240010E94F5
:10100000051990933F0180933E0182E00E947B0E80
:101010006CCF8091400181110FC080913E01909171
:101020003F010E941119883C910530F486E20E942C
:10103000500D86E20E942C0E82E00E94820E55CF57
:101040008091410181110FC080913E0190913F013B
:101050000E941119883C910530F487E20E94500DDE
:1010600087E20E942C0E80E2E8CF0C94960A0C9442
:10107000980A0C94F4060C9439080895972F70E0A0
:1010800021E1929F600D711D1124FB0195E5899F5F
:10109000E00DF11D1124EE0FFF1FE553FF4F859169
:1010A00094910895FC01EE0FFF1FE559F44F8591CF
:1010B000949108950E943E080E94CB099C018115DD
:1010C00040E4940708F097C0211580E3380708F042
:1010D000FAC0203E310508F074C0203C310508F00C
:1010E000E5C0283A310588F4253A310508F0E2C018
:1010F0002130310509F477C0C9010497813A91057F
:1011000008F471C030E020E06EC0C901885A91092E
:101110004597C0F7283A310509F4FEC0293A310550
:1011200009F4FDC02A3A310509F4FCC02B3A310517
:1011300009F4FBC02C3A310509F4FAC02B3B310508
:1011400009F4F9C02C3B310509F4F8C02D3A3105FA
:1011500009F4F7C0203B310509F4F6C02E3A3105F9
:1011600009F4F5C02F3A310509F4F4C0213B3105EB
:1011700009F4F3C0223B310509F4F2C0233B3105E9
:1011800009F4F1C0243B310509F4F0C0253B3105D9
:1011900009F4EFC0263B310509F4EEC0273B3105C9
:1011A00009F4EDC0283B310509F4ECC0293B3105B9
:1011B00009F4EBC02A3B310509F4EAC020E034E42D
:1011C00012C0211590E2390780F42F3F310509F054
:1011D00050F4283E310538F0C901805F910930652F
:1011E000409708F08FCFC9010895C9019F700E94F0
:1011F00052089C01F8CF8115944508F041C0211593
:1012000083E5380708F06AC0211592E5390738F5FB
:10121000211541E5340708F05CC0211580E5380749
:1012200008F454C0C90134E0969587953A95E1F7E2
:101230008370422F46954695437090E2499FA001E6
:101240001124582B822F837021E030E002C0220F3E
:10125000331F8A95E2F7242B352B3C68C4CFC90194
:101260008370992741E050E002C0440F551F8A95D2
:10127000E2F72695269580E2289F90011124EBCF76
:10128000211596E5390748F4922F88272115354511
:10129000C8F59C01246F306AA6CFC90190563F70F3
:1012A0008115904108F02ECF30629DCFC901805C3E
:1012B00091099DCF253A310549F1263A310549F585
:1012C00022E830E490CF3327306C8DCF3F70306A06
:1012D0008ACF322F2227216F306A85CFC9018370D0
:1012E000992741E050E002C0440F551F8A95E2F76C
:1012F0002695269580E2289F90011124242B352BDA
:101300003A6871CF88279F719C01CECF21E830E4E5
:101310006ACF23E830E467CF22EE34E464CF29EECD
:1013200034E461CF2AEE34E45ECF25EB34E45BCFC6
:1013300026EB34E458CF23EB34E455CF24EB34E4EC
:1013400052CF27EB34E44FCF2CEC34E44CCF2DECD0
:1013500034E449CF23E835E446CF2AE835E443CFE7
:1013600022E935E440CF24E935E43DCF21E236E4FB
:101370003ACF23E236E437CF24E236E434CF25E215
:1013800036E431CF26E236E42ECF27E236E42BCF07
:101390002AE236E428CF803E910581F1C8F48133FA
:1013A000910509F462C048F48932910509F456C0E8
:1013B0008A32910509F460C0089589339105B9F026
:1013C00082389105A1F08533910509F440C0089554
:1013D000863E910561F138F4823E9105B1F0833E7D
:1013E0009105E1F00895873E910551F1089520910E
:1013F00064022370D9F080EE90E008952091640299
:1014000020FF14C089E390E008952091640222FF38
:101410000DC024FD09C083EE90E008952091640280
:1014200022FD31C024FF02C090E080E008952091A9
:10143000640223FFFBCF24FDF7CF87EE90E00895F1
:101440002091640223FFEECF86EE90E00895209174
:10145000640225FFEBCF89E290E0089520916402B9
:1014600025FFE4CF85E390E008952091640226FFF4
:10147000DDCF8AE290E008952091640226FFD6CF66
:1014800081E390E0089582EE90E0089508950F932F
:101490001F93CF938C01FB018281811106C0C1E0B3
:1014A0008C2FCF911F910F910895C0914F01C111C1
:1014B00025C00531104799F70E94460A81E08093C4
:1014C0004F010E94051990934E0180934D01109297
:1014D0004201109244011092430110924601109271
:1014E0004501109248011092470110924A01109252
:1014F000490110924C0110924B01D2CF80914D01C5
:1015000090914E010E941119883C910540F68091FE
:101510004201E82FF0E0EE0FFF1FED5BFE4F11835D
:1015200000838F5F80934201C0E0BACF0C94F00635
:101530000C94F10685B7806885BF85B7806885BF44
:10154000A4E2B1E061E070E08D91E82FE295EF70E8
:10155000F0E041A18F709B0101C0220F8A95EAF74C
:10156000922F9095942391A382A1822B82A381E054
:10157000A932B80749F7A3E1B1E061E070E08D91CD
:10158000E82FE295EF70F0E041A18F709B0101C060
:10159000220F8A95EAF7922F9095942391A382A126
:1015A000822B82A381E0A432B80749F7E4E6F1E098
:1015B000A0E5B1E088E791E01192119211921192A9
:1015C0001D921D921D921D928E179F07A9F70C94D4
:1015D00035082F923F924F925F926F927F928F9237
:1015E0009F92AF92BF92CF92DF92EF92FF920F93B2
:1015F0001F93CF93DF93CDB7DEB72B970FB6F89439
:10160000DEBF0FBECDBF80E5282E81E0382E04E27C
:1016100011E01E830D8338862F82C12CD12C7601D8
:10162000C394AF81B8858D909D90AD90BD90B887E3
:10163000AF83FD011292129212921292FB87EA87F7
:10164000AD81BE818D91BE83AD83E82FE295EF70B1
:10165000F0E091A18F7001E010E002C0000F111FB7
:101660008A95E2F71A830983802F892B81A382A1AF
:1016700000950987802382A310EA1A95F1F723E1E8
:1016800031E03C832B8390E080E0AB81BC817D9096
:10169000BC83AB83272D22952F7030E0D901909623
:1016A0005C90AA85BB854D915D916D917C91272DB4
:1016B0002F7001E010E002C0000F111F2A95E2F721
:1016C0009801252109F07AC097018601082E04C0EF
:1016D000000F111F221F331F0A94D2F7280139016E
:1016E0004429552966297729AA85BB854D935D93A1
:1016F0006D937C93139701968131910531F681A109
:101700001985182311A382A1B9818B2B82A3EA85A5
:10171000FB8580819181A281B38188169906AA06F2
:10172000BB0649F0F1E0F09378010E94051990930F
:101730007A01809379010F8118850456114009F0D0
:1017400070CF809178018823E9F0809179019091A0
:101750007A010E9411190697A8F024E631E0F10100
:1017600081919191A191B1911F01F901819391937F
:10177000A193B1939F01F4E62F16F1E03F0679F7AC
:10178000109278010E94370881E02B960FB6F894EA
:10179000DEBF0FBECDBFDF91CF911F910F91FF90A4
:1017A000EF90DF90CF90BF90AF909F908F907F9001
:1017B0006F905F904F903F902F900895412C512C47
:1017C00032018ECFCF93DF9300D000D0CDB7DEB7FC
:1017D00094E0899FF0011124EC59FE4F80819181A2
:1017E000A281B381BC01CD010F900F900F900F909B
:1017F000DF91CF91089508959093800180937F01A8
:101800000895E0917F01F0918001309721F00190DF
:10181000F081E02D099480E00895E0917F01F0913E
:101820008001309721F00280F381E02D0994089522
:10183000E0917F01F0918001309721F00480F581E3
:10184000E02D0994089520917D0130917E012817A3
:10185000390771F090937E0180937D01E0917F01C3
:10186000F0918001309721F00680F781E02D0994F6
:10187000089520917B0130917C012817390771F080
:1018800090937C0180937B01E0917F01F091800136
:10189000309721F00084F185E02D09940895089592
:1018A0000C944F0C0E94FC180E949A0A0C94C519C3
:1018B0004F925F926F927F929F92AF92BF92CF9220
:1018C000DF92EF92FF920F931F93CF93DF9300D09D
:1018D00000D00F92CDB7DEB70E94E90A22E8A22E0F
:1018E00021E0B22E10E000E0902E802F0E94E20B4B
:1018F0006B017C01F50141905190619071905F0105
:101900004C145D046E047F0409F475C080913302A9
:1019100081FD0E94FB0B90E080E04C245D246E244E
:101920007F24B301A201082E04C0769567955795D0
:1019300047950A94D2F740FF59C089839A82412C77
:10194000512C3201439404C0440C551C661C771C76
:101950008A95D2F7C420D520E620F72081E0CD2853
:10196000CE28CF2809F480E08B830E94051981607E
:10197000782F9D838C8349815A816B818D810E9450
:10198000270D000F111F000F111FF801EE57FE4F1A
:1019900080819181A281B38184259525A625B725D3
:1019A00080839183A283B3830E94721C0E94010CE6
:1019B000909181018917B1F10E94010C80938101FE
:1019C0000F900F900F900F900F90DF91CF911F917C
:1019D0000F91FF90EF90DF90CF90BF90AF909F90CE
:1019E0007F906F905F904F900C943B0801968131EF
:1019F000910509F096CF0F5F1F4F0530110509F0D3
:101A000073CF8FEF89838A831B820E9405198160BF
:101A1000782F9D838C8349815A816B818D810E94AF
:101A2000270DC2CF0F900F900F900F900F90DF9166
:101A3000CF911F910F91FF90EF90DF90CF90BF90CB
:101A4000AF909F907F906F905F904F900895CF934D
:101A5000DF93CDB7DEB72B970FB6F894DEBF0FBE7E
:101A6000CDBF4F83588769877A878B871E8285E031
:101A7000FE013796DE01119601900D928A95E1F7ED
:101A800049815A816B817C818D819E812B960FB615
:101A9000F894DEBF0FBECDBFDF91CF910C949E13A3
:101AA000882309F4D8C0823871F40E94010C81FDAA
:101AB000D2C089E30E9443170E940D1889E30E9457
:101AC00080170C940D18833859F40E94010C80FD86
:101AD000C2C083E50E9443170E940D1883E5EFCF33
:101AE000843859F40E94010C82FDB5C087E40E943D
:101AF00043170E940D1887E4E2CF9CEF980F913AAC
:101B000018F40E944317DDCF90E2980F983050F4FC
:101B1000877091E001C0990F8A95EAF7892F0E949A
:101B2000C417CFCF9BE5980F933070F4853A31F00E
:101B3000863A39F083E890E00C94230C81E890E039
:101B4000FBCF82E890E0F8CF98E5980F953108F048
:101B500082C0883A09F440C0893A09F440C08A3A00
:101B600009F440C08B3A09F440C08C3A09F440C0F3
:101B70008B3B09F440C08C3B09F440C08D3A09F41A
:101B800040C0803B09F440C08E3A09F440C08F3A0F
:101B900009F440C0813B09F440C0823B09F440C0D5
:101BA000833B09F440C0843B09F440C0853B09F401
:101BB00040C0863B09F440C0873B09F440C0883BE5
:101BC00009F440C0893B09F440C08A3B09F440C095
:101BD00090E080E00C94390C82EE90E0FBCF89EE2F
:101BE00090E0F8CF8AEE90E0F5CF85EB90E0F2CF71
:101BF00086EB90E0EFCF83EB90E0ECCF84EB90E0CE
:101C0000E9CF87EB90E0E6CF8CEC90E0E3CF8DEC72
:101C100090E0E0CF83E891E0DDCF8AE891E0DACF91
:101C200082E991E0D7CF84E991E0D4CF81E292E0DC
:101C3000D1CF83E292E0CECF84E292E0CBCF85E2B7
:101C400092E0C8CF86E292E0C5CF87E292E0C2CFB1
:101C50008AE292E0BFCF0895882309F44BC082380E
:101C600071F40E94010C81FF45C089E30E94431773
:101C70000E940D1889E30E9480170C940D18833878
:101C800059F40E94010C80FF35C083E50E94431780
:101C90000E940D1883E5EFCF843859F40E94010C9F
:101CA00082FF28C087E40E9443170E940D1887E432
:101CB000E2CF9CEF980F913AF0F290E2980F9830B3
:101CC00050F4877091E001C0990F8A95EAF7892F47
:101CD0000E94CA17D2CF9BE5980F933020F490E072
:101CE00080E00C94230C885A853120F490E080E049
:101CF0000C94390C0895882321F00E94C4170C9489
:101D00000D180895882321F00E94CA170C940D180D
:101D100008958F929F92AF92BF92DF92EF92FF92BF
:101D20000F931F93CF93DF9300D000D00F92CDB7C6
:101D3000DEB77C016D837983FC01058102950F700C
:101D4000128111110E94E3170E943C17D82E88239C
:101D500071F01123A1F08D81805E883080F082E0E7
:101D60000E9426170E943C1791E0D82ED926E981BF
:101D7000E295EF70F0E0E351FA4D0C948925D12CF7
:101D8000F6CF09810F70F981F07F11F00295007F85
:101D90001123B1F0002361F08D81805E883018F04E
:101DA0002D81211109C0802F0E94C4170E940D1897
:101DB0008D810E94500D15C0802F0E94D517F6CF3F
:101DC0008D810E942C0E002361F08D81805E883011
:101DD00018F03D81311129C0802F0E94CA170E943E
:101DE0000D18DD2009F4D3C10E94191780FDCFC161
:101DF000F70112820E9413170E945C15C7010E940E
:101E0000D8100E9413170F900F900F900F900F9003
:101E1000DF91CF911F910F91FF90EF90DF90BF90D6
:101E2000AF909F908F900C947E15802F0E94DB17AF
:101E3000D6CF49814F70B42E5981507F503219F05E
:101E4000B29480EFB8228D81882369F0813029F126
:101E5000112369F1002359F0F701858180FFA8CF94
:101E60008F70858304C0112361F0011104C08B2D94
:101E70000E947B0EB6CF8B2D0130D1F70E94F71751
:101E8000B0CF011106C00E94FA178B2D0E94820E5E
:101E9000A8CF013009F4A5CFF6CF112321F00630E9
:101EA00008F09FCFE4CF053008F09BCFEECF0023A2
:101EB00061F38D810E942C0E94CF89818695869541
:101EC000837069F0813009F08CCF8D819981937096
:101ED000111102C090E080E00E94390C82CF8D8108
:101EE00099819370111102C090E080E00E94230C50
:101EF00078CF8D81112329F00E94801B0E94671CDE
:101F000070CF0E94E81BFACF8981837009F05FC00F
:101F1000111167CF2D81229526952770220F220F50
:101F20008D818F7090E0B0E0A0E04C015D01022E49
:101F300004C0880C991CAA1CBB1C0A94D2F7FD8112
:101F400060E070E0CB01F4FF0FC06FE070E080E074
:101F500090E004C0660F771F881F991F2A95D2F75B
:101F6000609570958095909529812695269523708A
:101F70002D832230B1F0233019F19B01AC012829C7
:101F800039294A295B2929833A834B835C833D8124
:101F900069817A818B819C813130B1F00E94E91492
:101FA00020CF9B01AC01282939294A295B292983A3
:101FB0003A834B835C83CA01B9010E94131511CF88
:101FC0000E94E914C501B4010E94BF140ACF86958E
:101FD000112311F089818170882309F402CF2D81AA
:101FE000229526952770220F220F8D818F7090E009
:101FF000B0E0A0E04C015D01022E04C0880C991CE9
:10200000AA1CBB1C0A94D2F73D8160E070E0CB01B2
:1020100034FF0FC06FE070E080E090E004C0660F16
:10202000771F881F991F2A95D2F760957095809524
:10203000909549814695469543704D834230B1F065
:10204000433019F19B01AC01282939294A295B2920
:1020500029833A834B835C833D8169817A818B81BB
:102060009C813130B1F00E94EF15BBCE9B01AC01D9
:10207000282939294A295B2929833A834B835C83A0
:10208000CA01B9010E941916ACCE0E94EF15C50114
:10209000B4010E94C515A5CE3D81323F09F447C069
:1020A00080F4303F79F1313FD9F1832F805E803168
:1020B000D0F0112309F456C001117ACE89818F71B5
:1020C00033C04D81433FD1F1443F99F7112309F4C7
:1020D0003FC089818F7189830E945C1563E089818B
:1020E0000E941D177ECE5D815F705D8389818F7137
:1020F000112321F00E945C158D81BACE0E947E15BD
:102100008D81C4CE112341F0053008F06ACE89815B
:102110008F710E94A31565CE063008F062CEF7CF0E
:1021200089818F71112339F00E945C155ACE898103
:102130008F711123C9F30E947E1553CE112329F00C
:1021400089818F710E9447154CCE0E943D1549CE62
:1021500081E00E942617023008F443CE82E00E94FC
:1021600026173FCE0111A5CE89818F71E4CF498119
:102170004F706D81C7010E94D4060E94381431CE81
:1021800049814F706D81C7010E943D082ACE0F9092
:102190000F900F900F900F90DF91CF911F910F91A3
:1021A000FF90EF90DF90BF90AF909F908F90089539
:1021B0000F931F93CF93DF93EC018B819C81892B2D
:1021C00029F08881998189238F3F29F4DF91CF916C
:1021D0001F910F910895CE010E9406078823B1F345
:1021E000688179818A810E94E9168C010E944316D8
:1021F0000E94B414B801CE01DF91CF911F910F91CD
:102200000C94890E0E94E3170E94F4170E94B617DF
:102210000E940D180E94581D0E94671C90E080E0EB
:102220000E94230C90E080E00C94390C0E94D2179D
:102230000C9402110E94DD16282F892F82958F7031
:10224000903C80F48A30B0F4843020F4823090F4F2
:1022500080E008958630E1F781E0203E88F0213F5C
:10226000B9F70EC08C3011F08F3091F793FB8827AF
:1022700080F9089581E0203F39F018F4203E40F7BE
:102280000895243F29F7FCCF0895CF93DF9300D022
:1022900000D00F92CDB7DEB70F900F900F900F9038
:1022A0000F90DF91CF910895CF93DF9300D000D0AE
:1022B00000D0CDB7DEB726960FB6F894DEBF0FBEBE
:1022C000CDBFDF91CF9108951F93CF93DF93E0911E
:1022D000970116E0809198018E1304C0DF91CF9191
:1022E0001F910895CE2FD0E01E9FF0011124E756D4
:1022F000FE4F4081518162817381848195810E946A
:102300005411FE013196E770E5CF4091C90150911B
:10231000CA016091CB017091CC018091CD01909167
:10232000CE010C9454111F93CF93DF938091CE0173
:10233000807FC1F48091CB018823A1F08091970127
:10234000C09198016091C9017091CA014091CC017E
:102350005091CD01D62FD723DA01A095B09516E084
:10236000C81304C0DF91CF911F91089590E04115EB
:10237000510511F0DF3F31F401968770F1CF2A0F3C
:102380003B1F17C0189FF001199FF00D1124E7564D
:10239000FE4F21812713F0CF20812613EDCF22811C
:1023A0002111EACF238134812417350740F3241B00
:1023B000350B283C310500F72091CE012F702061AC
:1023C0002093CE0126E0289FF001299FF00D1124D3
:1023D000E256FE4F80818F708061808389EC91E0AE
:1023E0000E94D810DF91CF911F910C9464119F929D
:1023F000AF92BF92CF92DF92EF92FF920F931F9313
:10240000CF93DF93CDB7DEB72B970FB6F894DEBF2F
:102410000FBECDBF8C0185E0F801DE01179601905B
:102420000D928A95E1F7D8014C9111965C91119724
:102430001296EC9012978091CC019091CD0100976B
:1024400009F46BC12091C9013091CA01632F622345
:102450006F3F09F462C11396CD90DC909090CB0150
:10246000992009F4F8C0C816D90608F43FC0F6014F
:10247000E81BF90BCF01FF24F394883C910508F089
:10248000F12C89ECA82E81E0B82E8091CE01982FF6
:10249000907FFF2009F4B7C0911180C0FE2C351346
:1024A0002AC0241328C0E11026C08F708061809359
:1024B000CE010E948511C5010E94D8108091CE01E5
:1024C000D80115968C938F2D2B960FB6F894DEBFFE
:1024D0000FBECDBFDF91CF911F910F91FF90EF9075
:1024E000DF90CF90BF90AF909F900895809590958A
:1024F0008C0D9D1DC0CFCD2829F0842F85238F3FC3
:1025000009F019C180E0B82FB170DB2EE09197017E
:102510002091980136E080FD1CC0EE20A1F2809150
:10252000CE0181608093CE01F12CCDCF8E2F90E033
:102530003E9FF0011124E756FE4F6181651306C0EE
:102540006081641303C062816E11E7CFFC01319694
:10255000E770E213EBCF4F8358878F8198850E94F5
:10256000DD16292F22952F70903260F0225F2F7098
:10257000223078F49F7051F0F8019581907F31F40A
:10258000D12C0AC09F7011F08823D1F3805E88306F
:10259000B8F3C8010E94D810FD2C95CF351306C0A2
:1025A000241304C0D801EE2009F47BC04F83588760
:1025B0008F8198850E941A11882309F4B8C0EE20F3
:1025C00009F4B5C08091CE01803270F02091C9012C
:1025D0003091CA013A8329831B82DD82CC828E83AB
:1025E000CE0101960E94D81086E0F801A9ECB1E076
:1025F00001900D928A95E1F70E9493110E94851136
:10260000FF24F39460CF911113C07C2DDB86CA8622
:102610006E2D8B850E94451189EC91E00E94D810A7
:1026200086E0F50111928A95E9F70E9485114BCF5A
:102630003513BCCF2413BACFE110B8CFD80115960B
:102640008C93C8010E94D81086E0F50111928A95FA
:10265000E9F7F92C38CFC816D90688F1B601681BFE
:10266000790BCB01F12C883C910508F047C0FE2C7A
:10267000EE2009F45CC0351330C024132EC08091C5
:10268000CE0180FD21C0982F907FF1F0D8011596E2
:102690008C931597903F39F0982F907F905F8F70B3
:1026A000892B15968C93C8010E94D81086E0F801FA
:1026B000A9ECB1E001900D928A95E1F7B6CF809533
:1026C00090958C0D9D1DCECF86E0F801A9ECB1E070
:1026D00001900D928A95E1F7F6CE4F8358878F814E
:1026E00098850E941A1181117FCF8091CE0181605F
:1026F0008093CE01C8010E94D810E5CE7C2DDB86E8
:10270000CA866E2D8B850E94451186E0E9ECF1E0CA
:10271000DF011D928A95E9F788CFEE2041F04F83C3
:1027200058878F8198850E941A1181115DCFC80149
:102730000E94D81065CF81E08E25E5CE1F93CF9300
:10274000DF93CDB7DEB72C970FB6F894DEBF0FBE80
:10275000CDBF4F83588769877A878B879C87CE0147
:1027600007960E94F711882369F08A859B85892B3B
:1027700039F04F815885842F85238F3F09F071C030
:1027800016E05FC086E0FE013796DE0111960190EB
:102790000D928A95E1F78A859B85892B89F3888537
:1027A0009F8189238F3F61F32091980130E0C90117
:1027B000019687709927409197014817190671F47F
:1027C0000E941611109298011092970186E0E9EC90
:1027D000F1E0DF011D928A95E9F7D2CF96E0929F52
:1027E000D001939FB00D1124A756BE4FFE01319624
:1027F00001900D929A95E1F7809398010E946411DF
:10280000BFCF819FC001112487569E4F0E94F711B0
:102810008823E9F0E09197011E9FF0011124E7560B
:10282000FE4F4081518162817381848195810E9434
:1028300054118091970190E00196877099278093B9
:10284000970180919701909198018913DACF2C9686
:102850000FB6F894DEBF0FBECDBFDF91CF911F91B1
:10286000089569857A858B859C850E94541188CF4F
:10287000EF92FF920F931F93CF93DF938C01892BDD
:1028800089F0F12CEE24E394E8012196F80184917B
:10289000843709F457C0A0F4823009F43EC048F4EC
:1028A0008130D1F0DF91CF911F910F91FF90EF9088
:1028B00008959CEF980F9037A8F70E94500D0AC01A
:1028C000853709F44CC09CE7980F903758F78F77FD
:1028D0000E942C0E8E0116C00E5F1F4FFE018491C8
:1028E00090E2980F983060F48770FE2D01C0FF0FC2
:1028F0008A95EAF78F2F0E94E6170E940D1802C0F2
:102900000E94500D8F2D815008F4BECFEFE9FFE0FB
:102910003197F1F700C00000F6CF0E5F1F4FFE01A8
:10292000849190E2980F983050F48770FE2D01C08A
:10293000FF0F8A95EAF78F2F0E94EC17DECF0E94D7
:102940002C0EE0CF0E5F1F4FFE01C491C150D0F29C
:102950008FE99FE00197F1F700C00000F7CF0E5F0D
:102960001F4FFE01F490CECF089560930A0270933A
:102970000B0280930C0290930D020C940211CF93E2
:10298000DF9300D000D0CDB7DEB769837A838B8325
:102990009C8380910A0290910B02A0910C02B0914D
:1029A0000D0229813A814B815C81822B932BA42BD0
:1029B000B52B80930A0290930B02A0930C02B09364
:1029C0000D020F900F900F900F90DF91CF910C940C
:1029D0000211CF93DF9300D000D0CDB7DEB769836B
:1029E0007A838B839C8380910A0290910B02A09141
:1029F0000C02B0910D0229813A814B815C818223C6
:102A00009323A423B52380930A0290930B02A093EF
:102A10000C02B0930D020F900F900F900F90DF916A
:102A2000CF910C940211CF93DF9300D000D0CDB79B
:102A3000DEB769837A838B839C8380910A029091AD
:102A40000B02A0910C02B0910D0229813A814B81B9
:102A50005C8182279327A427B52780930A0290934D
:102A60000B02A0930C02B0930D020F900F900F90E9
:102A70000F90DF91CF910C940211109206021092E8
:102A8000070210920802109209020C94021141E010
:102A900050E060E070E004C0440F551F661F771FD0
:102AA0008A95D2F74093060250930702609308027A
:102AB000709309020C940211282F81E090E0A0E0AD
:102AC000B0E004C0880F991FAA1FBB1F2A95D2F738
:102AD000409106025091070260910802709109022C
:102AE000842B952BA62BB72B80930602909307027D
:102AF000A0930802B09309020C94021141E050E047
:102B000060E070E004C0440F551F661F771F8A9570
:102B1000D2F74095509560957095809106029091FE
:102B20000702A0910802B091090284239523A623ED
:102B3000B7238093060290930702A0930802B093F4
:102B400009020C940211282F81E090E0A0E0B0E08F
:102B500004C0880F991FAA1FBB1F2A95D2F7409166
:102B600006025091070260910802709109028427C1
:102B70009527A627B7278093060290930702A09374
:102B80000802B09309020C940211CF93DF9300D096
:102B900000D0CDB7DEB769837A838B839C83809125
:102BA000060290910702A0910802B09109022981C2
:102BB0003A814B815C81822B932BA42BB52B809384
:102BC000060290930702A0930802B09309020F90A7
:102BD0000F900F900F90DF91CF910C940211CF9333
:102BE000DF9300D000D0CDB7DEB769837A838B83C3
:102BF0009C838091060290910702A0910802B091F7
:102C0000090229813A814B815C8182239323A42389
:102C1000B5238093060290930702A0930802B09315
:102C200009020F900F900F900F90DF91CF910C94AD
:102C30000211CF93DF9300D000D0CDB7DEB7698308
:102C40007A838B839C838091060290910702A091E6
:102C50000802B091090229813A814B815C81822767
:102C60009327A427B5278093060290930702A09389
:102C70000802B09309020F900F900F900F90DF9110
:102C8000CF910C9402110895E82F21E1929FE00D5D
:102C900011248E2F877041E001C0440F8A95EAF716
:102CA000E695E695E69585E0E89FF0011124E1536D
:102CB000FE4F30E020E070E05191DF011197CB0131
:102CC000022E02C0969587950A94E2F7817081954D
:102CD0008527842385278C932F5F3F4F253031052F
:102CE00059F70895E82F21E1929FE00D11249E2FBE
:102CF0009770E695E695E69585E0E89FF00111244A
:102D0000E153FE4F50E040E080E0219130E0092E99
:102D100002C0369527950A94E2F721703327042ED6
:102D200001C0220F0A94EAF7822B4F5F5F4F4530B4
:102D3000510559F70895BF92CF92DF92EF92FF921B
:102D40000F931F93CF93DF938C01C0900602D09016
:102D50000702E0900802F090090280910A02909127
:102D60000B02A0910C02B0910D02C82AD92AEA2ABE
:102D7000FB2ACFE1D0E0BC2ED701C6010C2E04C047
:102D8000B695A795979587950A94D2F780FD0EC0C2
:102D9000219788F7B12C8B2DDF91CF911F910F9147
:102DA000FF90EF90DF90CF90BF900895B8018C2FE7
:102DB0000E945A08019761F3EECFCF93DF93D82F8B
:102DC000C92F0E949B166D2F7C2FDF91CF910C9401
:102DD0005A081F93CF93DF93162FD72F9091960108
:102DE000992339F0862F972FDF91CF911F910C9463
:102DF000DD16882391F0862F972F0E949B16C82FEF
:102E0000682F812F9D2F0E944416612F7D2F8C2FBC
:102E1000DF91CF911F910C945A08862F972F0E9413
:102E20007216C82FF2CF80910E02859585958595F3
:102E3000089580910E028770089598E0899F90010F
:102E40001124622B60930E020C945C1590910E027B
:102E50008095892380930E02282F277061F4282FF4
:102E6000082E000C330B9217130629F085958595D3
:102E700085950C947E15089590910E02977081E0CF
:102E800009F480E00895909112019923E1F0909166
:102E9000640297FF18C0E82FE695E695E695EF31B6
:102EA00039F12091000130910101E20FF32FF11D62
:102EB000877021E030E001C0220F8A95EAF7818116
:102EC000822B818308952091000130910101F90145
:102ED00032969FEF40E05191851751F09F3F19F4D2
:102EE000511101C0942F4F5F4E31A9F79F3F09F454
:102EF0000895290F311D97FD3A95F90182830895B0
:102F000090911201992301F19091640297FF1CC0E6
:102F1000E82FE695E695E695EF3139F1209100012D
:102F200030910101E20FF32FF11D877021E030E0B5
:102F3000A90102C0440F551F8A95E2F7CA01809586
:102F400091818923818308952091000130910101AD
:102F5000F9013296205E3F4F9191891303C0DF0142
:102F600011971C92E217F307B9F7089581E090E0FA
:102F7000E0910001F0910101E80FF91F1082019624
:102F800080329105A9F7089590913202982B909381
:102F900032020895982F9095809132028923809370
:102FA0003202089510923202089590913102982BC6
:102FB000909331020895982F909580913102892342
:102FC0008093310208951092310208959091300259
:102FD000982B909330020895982F9095809130020D
:102FE00089238093300208951092300208958093CF
:102FF0000F02089510920F02089520910001309160
:103000000101F9013196205E3F4F80E091919111CD
:103010008F5FE217F307D1F70895E0910001F09177
:103020000101809132028083E0910001F091010161
:10303000808190913102892B8083E0910001F09191
:103040000101808190913002892B808390910F0241
:10305000992361F0E0910001F09101018081892BB9
:1030600080830E94FD17811110920F028091000150
:10307000909101010C940D0C6DEE7EEF90E080E0DC
:103080000E94C32560E082E090E00E94B12560E0EC
:1030900083E090E00E94B12560E084E090E00E942F
:1030A000B12560E085E090E00C94B12590E080E0EF
:1030B0000E94AB259C0181E02D3E3E4F09F080E04F
:1030C000089582E090E00C94A325682F82E090E0C0
:1030D0000C94B12583E090E00C94A325682F83E045
:1030E00090E00C94B12584E090E00C94A325682F27
:1030F00084E090E00C94B12580916A02843039F12B
:103100001092340288E190E020E40FB6F894A8957C
:10311000809360000FBE2093600080E00E943B0817
:1031200083B7817F846083BF83B7816083BF7894D6
:10313000889583B78E7F83BF0FB6F894A89580914A
:103140006000886180936000109260000FBE089557
:1031500008950895CF93DF9300D000D00F92CDB79C
:10316000DEB70E94A8180E94E90A0E94A9181D82D1
:103170008D810E94E20B672B682B692B71F48D8186
:103180008F5F8D838530A1F780E00F900F900F90B7
:103190000F900F90DF91CF91089581E0F6CF0E94BC
:1031A00016110E94010C0C943B081F921FB61F922F
:1031B00011248F939F93AF93BF9380913402811119
:1031C00013C08091600290916102A0916202B0915F
:1031D00063024196A11DB11D80936002909361022C
:1031E000A0936202B0936302BF91AF919F918F91C0
:1031F0001F901FBE1F90189582E084BD93E095BD7F
:103200009AEF97BD80936E0008952FB7F894809140
:10321000600290916102A0916202B09163022FBF9F
:103220000895CF92DF92EF92FF929C014FB7F894EE
:103230008091600290916102A0916202B09163025C
:103240004FBF6C017D01EE24FF24A90170E060E016
:10325000C416D506E606F70638F0821B930BFF90DE
:10326000EF90DF90CF9008950197F7CF1F921FB690
:103270001F9211248F939F93AF93BF93809160020D
:1032800090916102A0916202B09163020196A11D2A
:10329000B11D8093600290936102A0936202B0938B
:1032A0006302BF91AF919F918F911F901FBE1F909E
:1032B00018950E944C21F8942FEF87EA91E621504F
:1032C00080409040E1F700C0000087E090EBDC0117
:1032D0008093730290937402A0937502B093760268
:1032E00088E19CE00FB6F894A895809360000FBE2B
:1032F00090936000FFCFAF92BF92CF92DF92EF9298
:10330000FF920F931F93CF93C0E0A82EB12C8C2F68
:103310000E94E20B6B017C0110E000E0D701C601C6
:10332000002E04C0B695A795979587950A94D2F775
:1033300080FF13C0602F7C2F80E00E943E08A816FB
:10334000B90659F481E0CF911F910F91FF90EF9052
:10335000DF90CF90BF90AF9008950F5F1F4F013166
:103360001105E1F6CF5FC53091F680E0ECCFCF9349
:10337000C82F8CE20E947B19882321F08C2FCF91DB
:103380000C947B1980E0CF910895CF93DF9300D008
:1033900000D0CDB7DEB70E945618811102C00E943E
:1033A0003C1895E6998308C00E94E90A8FE39CE9DE
:1033B0000197F1F700C00000A981A150A983A111D4
:1033C000F3CF89E20E94B719811110C18AE20E94ED
:1033D000B71981110E943C1885E00E94B71981112C
:1033E0000E9459190E9461188093330287E00E945D
:1033F000B719882371F08BE10E94B719882309F46B
:10340000D1C090913302892F8D7F91FF826080938C
:103410003302809133020E9465180E94731890E075
:10342000909365028093640280EE0E94B71988230E
:1034300041F090916402892F8E7F90FF816080938C
:10344000640289E30E94B719882341F090916402D5
:10345000892F8D7F91FF82608093640282EE0E94AB
:10346000B719882341F090916402892F8B7F92FFD6
:1034700084608093640286EE0E94B719882341F02D
:1034800090916402892F877F93FF88608093640204
:1034900083EE0E94B719882341F090916402892F2E
:1034A0008F7E94FF80618093640285E30E94B71948
:1034B000882341F090916402892F8F7D95FF80626F
:1034C0008093640281E30E94B719882341F09091B0
:1034D0006402892F8F7B96FF80648093640281E170
:1034E0000E94B719882341F090916402892F97FBBD
:1034F00087F9805880936402809164020E94771853
:1035000087E20E94B71989838EE10E94B719882348
:1035100019F0B981B260B9838FE10E94B71988238D
:1035200019F029812460298380E20E94B719882339
:1035300019F039813860398381E20E94B7198823F4
:1035400019F049814061498382E20E94B7198823BA
:1035500019F059815062598383E20E94B719882378
:1035600019F089818064898384E20E94B7198823D5
:10357000B1F199819068998389810E946E1839818F
:10358000232F30E050E040E029833A834B835C8373
:10359000CA01B9010F900F900F900F90DF91CF915A
:1035A0000C94B5148EE00E94B719882339F09091DD
:1035B0003302892F8B7F92FF846029CF80E10E94A4
:1035C000B71990913302882329F0892F877F93FFC1
:1035D00088601DCF892F8E7F90FF816018CFA981D1
:1035E000A111CACF0E946A18282FCBCF0F900F903D
:1035F0000F900F90DF91CF9108958091370280FF57
:1036000012C06091050185E0689FB0011124759595
:1036100067957595679560387105A8F56115710511
:10362000A1F1862F089581FF09C06091050185E011
:10363000689FB001112475956795EDCF60910501E4
:1036400082FD0AC0809138028823D1F09091040154
:1036500060910501891728F085E0689FB001112469
:10366000DACF869FB001112485E0869F9001879F65
:10367000300D1124692F70E0C9010E947525CBCF50
:1036800065E070E0CECF8FE7089581E008958091E6
:10369000370280FF0CC06091030170E0759567955B
:1036A000759567956115710549F1862F089581FF1C
:1036B00006C06091030170E075956795F3CF609146
:1036C000030182FD0BC0909138029923A1F0609113
:1036D000020180910301961738F0682F70E060387E
:1036E000710500F38FE70895899FC001112470E0F0
:1036F0000E947525F4CF61E070E0D7CF81E0089596
:10370000803F31F40E94FD1A819580933B02089519
:10371000813F19F40E94FD1AF8CF823F31F40E94D4
:10372000FD1A819580933A020895833F19F40E940F
:10373000FD1AF8CF893F29F40E94471B80933C0271
:1037400008958A3F21F40E94471B8195F7CF8B3F54
:1037500031F40E94471B819580933D0208958C3F70
:1037600019F40E94471BF8CF843F31F4809139024D
:103770008160809339020895853F21F48091390258
:103780008260F7CF863F21F4809139028460F1CFC7
:10379000873F21F4809139028860EBCF883F21F484
:1037A000809139028061E5CF8D3F31F480913702FD
:1037B00081608093370208958E3F21F48091370213
:1037C0008260F7CF8F3FB9F7809137028460F1CFE5
:1037D00090913A02803F41F480913B0287FD109224
:1037E0003B02992371F00895813F29F480913B02B7
:1037F0001816ACF3F6CF823F81F497FFF2CF109208
:103800003A0280913B0290913C02892B90913D02BB
:10381000892B49F7109238020895833F19F419163D
:1038200074F3DFCF893F39F480913C021816CCF64F
:1038300010923C02D6CF8A3F29F480913C0287FF48
:10384000D0CFF6CF8B3F39F480913D0287FFC9CFAF
:1038500010923D02C6CF8C3F29F480913D0218168C
:10386000BCF3BFCF843F31F4809139028E7F8093C7
:103870003902B7CF853F21F4809139028D7FF7CF90
:10388000863F21F4809139028B7FF1CF873F21F46D
:1038900080913902877FEBCF883F21F480913902F4
:1038A0008F7EE5CF8D3F31F4809137028E7F8093FC
:1038B000370297CF8E3F21F4809137028D7FF7CF6B
:1038C0008F3F09F08ECF809137028B7FF0CF89E355
:1038D00092E00E94180C0E94051990933602809382
:1038E000350208951F93CF93DF9300D000D000D00E
:1038F000CDB7DEB780913502909136020E94111942
:10390000AC01809138022091060130E0811106C09F
:10391000209107019AE0299F900111244217530733
:1039200088F020913A02A0913B02A98310913C02B9
:10393000B0913D02BE8321110FC09A2F912B9B2B7A
:1039400009F0B2C026960FB6F894DEBF0FBECDBF09
:10395000DF91CF911F9108958F3F19F08F5F809372
:103960003802121624F40E94FD1A80933A028091C4
:103970003A0287FF05C00E94FD1A819580933A02A2
:103980002981121624F40E94FD1A80933B02809133
:103990003B0287FF05C00E94FD1A819580933B0280
:1039A00080913A02882309F455C030913B023D834F
:1039B000332309F44FC0282F880F330B440B550BCA
:1039C00029833A834B835C83CA01B9010E947C241A
:1039D00023E333E343E35FE369837A838B839C834D
:1039E00069817A818B819C810E94E02469837A833A
:1039F0008B839C8369817A818B819C810E94442482
:103A000060933A028D81082E000C990BAA0BBB0B18
:103A100089839A83AB83BC83BC01CD010E947C2443
:103A200023E333E343E35FE369837A838B839C83FC
:103A300069817A818B819C810E94E02469837A83E9
:103A40008B839C8369817A818B819C810E94442431
:103A500060933B02111624F40E94471B80933C02A2
:103A600080913C0287FF05C00E94471B819580938F
:103A70003C029E81191624F40E94471B80933D024C
:103A800080913D0287FF05C00E94471B819580936E
:103A90003D0226960FB6F894DEBF0FBECDBFDF9174
:103AA000CF911F910C94671C8F3F09F057CF68CFBF
:103AB00085E0E9E3F2E0DF011D928A95E9F71092D3
:103AC000380210923702089580915E020895CF93D4
:103AD000DF9300D00F92CDB7DEB720916A02243079
:103AE00019F523E029838A839B832093E9008FEFD4
:103AF0009091E800815095FD06C095ED9A95F1F7FB
:103B000000008111F5CF8091E80085FF0DC050E0E5
:103B100040E063E070E0CE0101960E94C41F8091F6
:103B2000E8008E778093E8000F900F900F90DF9160
:103B3000CF910895CF93DF9300D00F92CDB7DEB72A
:103B40009C0180916A02843031F582E0898320589B
:103B500031093B832A8383E08093E9008FEF9091C2
:103B6000E800815095FD06C095ED9A95F1F70000AB
:103B70008111F5CF8091E80085FF0DC050E040E055
:103B800063E070E0CE0101960E94C41F8091E800BE
:103B90008E778093E8000F900F900F90DF91CF9178
:103BA000089520916A022430F1F422E02093E90084
:103BB0002FEF3091E800215035FD06C035ED3A95E4
:103BC000F1F700002111F5CF2091E80025FF0BC08F
:103BD00050E040E065E070E00E94C41F8091E80082
:103BE0008E778093E8000895CF93DF93D82FC92F65
:103BF00080916A028430F1F4909112019923E9F0E6
:103C00009091640297FF19C08093E9008FEF909123
:103C1000E800815095FD06C095E19A95F1F7000006
:103C20008111F5CF8091E80050E040E060E270E063
:103C300085FD1AC0DF91CF91089581E08093E9005E
:103C40008FEF9091E800815095FD06C095ED9A9513
:103C5000F1F700008111F5CF8091E80085FFEACFF0
:103C600050E040E068E070E08D2F9C2F0E94C41F60
:103C70008091E8008E778093E80080E2ED2FFC2FA2
:103C8000AEE3B2E001900D928A95E1F7D3CF809137
:103C90006902811109C00E944C210E94A9218091D2
:103CA000E20084608093E200089510926902089512
:103CB000089508950C94CF1842E061EC81E00E94D1
:103CC000C82042E061EC82E00E94C82042E061EC42
:103CD00083E00E94C82042E261EC84E00C94C8209A
:103CE00080916C02893089F148F4823009F494C0E3
:103CF000833009F44FC0813041F008958A3009F4CF
:103D00007BC08B3009F461C0089580916B02813AC9
:103D100009F03FC08091E800877F8093E8008091A0
:103D20006F0290917002892B61F460E28EE392E061
:103D300070E00E9413208091E8008B778093E80068
:103D4000089560E090E080E0F3CF80916B028132D3
:103D500001F580916F0290917002009711F0039726
:103D6000C1F48091E800877F8093E8008091E800AB
:103D700082FF0BC08091F10080935E028091E80089
:103D80008B778093E8000C94FC2080916A0281116B
:103D9000EDCF089580916B02813AD9F780916F023F
:103DA00090917002892BA9F78091E800877F80931A
:103DB000E8008091E80080FFFCCF809112018093A1
:103DC000F1008091E8008E77DCCF80916B02813228
:103DD00001F780916F0290917002892BD1F680914A
:103DE000E800877F8093E8000E94FC2080916D02AC
:103DF000809312010C94161180916B02813249F666
:103E00008091E800877F8093E8000E94FC208091E9
:103E10006E0280935F02089580916B02813A09F0EF
:103E2000B8CF8091E800877F8093E8008091E80018
:103E300080FFFCCF80915F02C2CF84B7877F84BFB1
:103E40000FB6F894A8958091600088618093600017
:103E5000109260000FBE80E88093610010926100B4
:103E60000E94500C0E944C210E94A9218091E200E6
:103E700084608093E20078940E9429240E94520C6E
:103E800088E091E00E94FC0B80916A02853019F075
:103E90000E94580CF9CF0E947C18809168028823F8
:103EA00099F30E94AA18882379F30E94AE1FECCFE1
:103EB0009C01DA01892F992783309105C1F068F4BC
:103EC0008130910509F445C0029761F48DE690E0D8
:103ED0002BE93BE02D933C93089581329105E1F06D
:103EE000829739F190E080E030E020E0F3CFC90123
:103EF0009927213059F08230910559F0E7E9FBE02C
:103F0000892B81F7849190E09F01E4CFEFE7FBE0FC
:103F1000F9CFEBE6FBE0F6CF643020F7E62FF0E0D8
:103F2000EE0FFF1FEB5CFE4F2081318189E090E0B6
:103F3000D1CF6430B8F670E0FB01EE0FFF1FE35DF8
:103F4000FE4F20813181675D7E4FFB01808190E0D3
:103F5000C1CF82E190E028E03CE0BCCF80E189BDA8
:103F600082E189BD09B400FEFDCF8091D8008F7D2C
:103F70008093D8008091E00082608093E00080917F
:103F8000E00081FDFCCF0895AF92BF92CF92DF9207
:103F9000FF920F931F93CF93DF936C01EB018A0184
:103FA0000E941B21F82E811123C00115110539F043
:103FB000F80180819181C81BD90BC80ED91EB12C84
:103FC000A12C2097A9F08091E80085FD22C0809166
:103FD000E8008E778093E80001151105A1F0F80143
:103FE00080819181A80EB91EB182A08285E0F82E51
:103FF0008F2DDF91CF911F910F91FF90DF90CF9088
:10400000BF90AF9008950E941B218823D1F2F82E13
:10401000EFCFF60181916F018093F1002197FFEFBF
:10402000AF1ABF0ACECFFC01CB01209171023091B3
:1040300072022617370790F0009729F42091E800C4
:104040002E772093E80040E0009751F4411108C01A
:104050008091E80082FF31C080E00895C901F3CF6C
:1040600020916A022223A9F12530A9F12091E800CC
:1040700023FD2DC02091E80022FDEACF2091E80029
:1040800020FFE2CF3091F3002091F200009719F069
:104090002830310558F041E02830310509F040E082
:1040A0002091E8002E772093E800CECF41914093F5
:1040B000F10001972F5F3F4FE9CF80916A0288237B
:1040C00041F0853041F08091E80083FFC1CF81E06D
:1040D000089582E0089583E00895FC01CB012091CA
:1040E0007102309172022617370790F0009729F479
:1040F0002091E8002E772093E80040E0009751F4EB
:10410000411108C08091E80082FF32C080E008952C
:10411000C901F3CF20916A022223B1F12530B1F118
:104120002091E80023FD2EC02091E80022FDEACF77
:104130002091E80020FFE2CF3091F3002091F200BF
:10414000009719F02830310558F041E0283031054A
:1041500009F040E02091E8002E772093E800CECFD0
:1041600044914093F100319601972F5F3F4FE8CF84
:1041700080916A02882341F0853041F08091E80007
:1041800083FFC0CF81E0089582E0089583E0089521
:10419000982F973028F08F708093E90081E0089580
:1041A0009093E900242F762F50E0981731F070910A
:1041B000EC002091ED005091F00021FD02C09F5FC6
:1041C000E8CF3091EB003E7F3093EB003091ED0073
:1041D0003D7F3093ED003091EB0031603093EB0088
:1041E0007093EC002093ED005093F0002091EE00CE
:1041F00027FDE5CF80E0089580916B0287FF13C013
:104200008091E80082FF06C08091E8008B77809360
:10421000E80004C080916A028111F2CF0895809174
:104220006A028823D9F38091E80080FFF8CF80915B
:10423000E8008E77ECCF2091E4003091E50095E620
:10424000A9012091EC00822F817020FF06C080918F
:10425000E80080FF06C080E008952091E80022FD7C
:104260001AC080916A02882389F0853089F0809194
:10427000EB0085FD0FC02091E4003091E50042176E
:104280005307F9F29150E1F684E0089582E0089531
:1042900083E0089581E008950E94BA210E94C2211E
:1042A000E0EEF0E0808181608083E8EDF0E08081E5
:1042B0008F77808319BCA7EDB0E08C918E7F8C93B3
:1042C00080818F7E80831092690208950F931F93DF
:1042D000CF93DF930E94BA210E94C221C8EDD0E0A3
:1042E00088818F77888388818068888388818F7DA3
:1042F000888319BC10926A021092660210926802BA
:104300001092670200EE10E0F80180818B7F8083BD
:1043100088818160888342E060E080E00E94C8205C
:10432000E1EEF0E080818E7F8083E2EEF0E080813C
:1043300081608083808188608083F80180818E7FA6
:104340008083888180618883DF91CF911F910F9155
:104350000895E8EDF0E080818F7E8083E7EDF0E066
:1043600080818160808384E082BF81E080936902E4
:104370000C946621E8EDF0E080818E7F80831092BE
:10438000E20008951092DA001092E10008951F9261
:104390000F920FB60F9211242F933F934F935F9379
:1043A0006F937F938F939F93AF93BF93EF93FF93FD
:1043B0008091E10082FF0BC08091E20082FF07C084
:1043C0008091E1008B7F8093E1000E9428248091FE
:1043D000DA0080FF19C08091D80080FF15C080915D
:1043E000DA008E7F8093DA008091D90080FF94C03C
:1043F00080E189BD82E189BD09B400FEFDCF81E085
:1044000080936A020E94471E8091E10080FF19C0DC
:104410008091E20080FF15C08091E2008E7F809342
:10442000E2008091E20080618093E2008091D800F8
:1044300080628093D80019BC85E080936A020E9454
:10444000591E8091E10084FF29C08091E20084FF21
:1044500025C080E189BD82E189BD09B400FEFDCFA0
:104460008091D8008F7D8093D8008091E1008F7E6D
:104470008093E1008091E2008F7E8093E200809142
:10448000E20081608093E20080916602882309F453
:1044900049C084E080936A020E945A1E8091E10024
:1044A00083FF29C08091E20083FF25C08091E10055
:1044B000877F8093E10082E080936A021092660217
:1044C0008091E1008E7F8093E1008091E2008E7FF9
:1044D0008093E2008091E20080618093E20042E0FC
:1044E00060E080E00E94C8208091F00088608093A6
:1044F000F0000E94581EFF91EF91BF91AF919F91E4
:104500008F917F916F915F914F913F912F910F907C
:104510000FBE0F901F90189519BC10926A020E944E
:10452000551E72CF8091E30087FD02C081E0B2CFBB
:1045300083E0B0CF1F920F920FB60F9211242F93EA
:104540003F934F935F936F937F938F939F93AF931B
:10455000BF93CF93DF93EF93FF93D091E900DF7088
:104560008091EC00C82FC17080FDC0E81092E90076
:104570008091F000877F8093F00078940E94DE2283
:104580001092E9008091F00088608093F000CD2BBC
:10459000CF70C093E900FF91EF91DF91CF91BF9170
:1045A000AF919F918F917F916F915F914F913F91CB
:1045B0002F910F900FBE0F901F9018951F93CF93C0
:1045C000DF93CDB7DEB7AA970FB6F894DEBF0FBE64
:1045D000CDBF8BE692E0FC0101962091F100208393
:1045E00022E083379207B9F70E94701E8091E8009D
:1045F00083FF16C180916B0290916C029A3008F093
:104600000FC1E92FF0E0E350FA4D0C948925803872
:1046100081F0823809F004C180916F028F7080931D
:10462000E9008091EB0085FB882780F91092E90072
:1046300006C080916702909168029111826090910A
:10464000E800977F9093E8008093F1001092F100CA
:104650008091E8008E77E0C0882309F4CEC08230D4
:1046600009F0DEC080916D028111D1C080916F028E
:104670008F7009F4D5C08093E9002091EB0020FFF2
:10468000C6C0933031F48091EB0080628093EB00E0
:10469000BEC09091EB0090619093EB0021E030E080
:1046A00001C0220F8A95EAF72093EA001092EA00EF
:1046B0008091EB008860EACF8111B2C010916D0249
:1046C0001F778091E3008078812B8093E3008091B5
:1046D000E800877F8093E8000E94FC208091E8003A
:1046E00080FFFCCF8091E30080688093E30082E04C
:1046F000111183E080936A0293C08058823008F0E1
:104700008FC080916D0290916E028C3D23E09207E4
:10471000A1F583E08A838AE289834FB7F894DE01AA
:10472000139620E03EE051E2E32FF0E05093570073
:10473000E49120FF03C0E295EF703F5FEF708E2F92
:1047400090E0EA30C0F0C7968D939D932F5F24319F
:1047500059F74FBF8091E800877F8093E8006AE2B5
:1047600070E0CE0101960E9413208091E8008B77C3
:104770008093E80055C0C096E7CFAE014F5F5F4F12
:1047800060916F020E94581FBC01892B09F448C038
:104790008091E800877F8093E80089819A810E9458
:1047A0006D20E3CF8038E1F58091E800877F80932A
:1047B000E800809166028093F1004ACF811130C0F9
:1047C00090916D02923060F58091E800877F809330
:1047D000E800909366020E94FC2080916602882384
:1047E00011F084E005C08091E30087FDFACF81E0FD
:1047F00080936A020E945C1E13C080916D0281301A
:1048000079F481E0933009F080E08093680210929F
:10481000E9008091E800877F8093E8000E94FC20F7
:104820008091E80083FF0AC08091E800877F809331
:10483000E8008091EB0080628093EB00AA960FB6AF
:10484000F894DEBF0FBECDBFDF91CF911F910895C9
:104850000895CF9380916A028823A1F0C091E90066
:10486000CF709091EC00892F817090FD80E8C82B6B
:104870001092E9008091E80083FD0E94DE22CF7053
:10488000C093E900CF9108950E944B246894B11120
:104890000C94DA2408950E94BF2488F09F5798F062
:1048A000B92F9927B751B0F0E1F0660F771F881F35
:1048B000991F1AF0BA95C9F714C0B13091F00E944F
:1048C000D924B1E008950C94D924672F782F882734
:1048D000B85F39F0B93FCCF3869577956795B39576
:1048E000D9F73EF490958095709561957F4F8F4FE5
:1048F0009F4F0895E89409C097FB3EF490958095EA
:10490000709561957F4F8F4F9F4F9923A9F0F92F95
:1049100096E9BB279395F695879577956795B79513
:10492000F111F8CFFAF4BB0F11F460FF1BC06F5FF9
:104930007F4F8F4F9F4F16C0882311F096E911C00B
:10494000772321F09EE8872F762F05C0662371F02C
:1049500096E8862F70E060E02AF09A95660F771F40
:10496000881FDAF7880F9695879597F9089557FD70
:104970009058440F551F59F05F3F71F04795880FCD
:1049800097FB991F61F09F3F79F087950895121664
:1049900013061406551FF2CF4695F1DF08C0161610
:1049A00017061806991FF1CF8695710561050894C1
:1049B0000895E894BB2766277727CB0197F90895D8
:1049C0000E94F3240C9464250E94562538F00E941E
:1049D0005D2520F0952311F00C944D250C94532562
:1049E00011240C94DA240E94B72470F3959FC1F32C
:1049F000950F50E0551F629FF001729FBB27F00D8D
:104A0000B11D639FAA27F00DB11DAA1F649F6627E1
:104A1000B00DA11D661F829F2227B00DA11D621F30
:104A2000739FB00DA11D621F839FA00D611D221FEA
:104A3000749F3327A00D611D231F849F600D211DCE
:104A4000822F762F6A2F11249F5750409AF0F1F051
:104A500088234AF0EE0FFF1FBB1F661F771F881FBA
:104A600091505040A9F79E3F510580F00C944D2580
:104A70000C94DA245F3FE4F3983ED4F3869577955F
:104A80006795B795F795E7959F5FC1F7FE2B880F60
:104A9000911D9695879597F9089597F99F6780E8F6
:104AA00070E060E008959FEF80EC089500240A9480
:104AB0001616170618060906089500240A941216F9
:104AC0001306140605060895092E0394000C11F42C
:104AD000882352F0BB0F40F4BF2B11F460FF04C0D9
:104AE0006F5F7F4F8F4F9F4F089597FB072E16F4F0
:104AF000009407D077FD09D00E948F2507FC05D0D0
:104B00003EF4909581959F4F0895709561957F4FE4
:104B10000895EE0FFF1F0590F491E02D0994AA1B54
:104B2000BB1B51E107C0AA1FBB1FA617B70710F098
:104B3000A61BB70B881F991F5A95A9F780959095CA
:104B4000BC01CD010895F999FECF92BD81BDF89ABF
:104B5000992780B50895A8E1B0E042E050E00C94B8
:104B6000CB25262FF999FECF92BD81BDF89A0197EA
:104B700000B4021639F01FBA20BD0FB6F894FA9AA5
:104B8000F99A0FBE08950196272F0E94B2250C9422
:104B9000B125DC01CB01FC01F999FECF06C0F2BDC5
:104BA000E1BDF89A319600B40D9241505040B8F7EB
:104BB0000895F894FFCFA607B207B607BA07BE0755
:104BC000C207C607CA07CE07D207D607DA07DE072D
:104BD000E207E607EA07EE07F207C10EC10E190F5A
:104BE000190F5D0F790FF10EF10E840FF10E4C10BD
:104BF0004C10B710F10EF10EC01007232C23102417
:0E4C00002C2310245C237D231024D223DE23DA
:104C0E0010022808140A321E641DF41DD11D9A1DAF
:104C1E00671D01F4F5F6F736353497966667909171
:104C2E00939294953031323337404D3639D60C89C4
:0E4C3E000C530C1A0CAD0BC60BDF0BF80B0061
:00000001FF
